S015000046696E616C2050726F6A6563742E737265632E
S11300000C9434000C9447030C9451000C9451004C
S11300100C9451000C9451000C9451000C94510018
S11300200C9451000C9451000C9451000C9417033F
S11300300C9451000C9451000C9423030C94510023
S11300400C9451000C9451000C9451000C945100E8
S11300500C9451000C9456030C9451000C945100D0
S11300600C9451000C94510011241FBECFEFD8E022
S1130070DEBFCDBF11E0A0E0B1E0E6E9F0E102C0EF
S113008005900D92A234B107D9F722E0A2E4B1E0C1
S113009001C01D92A334B207E1F70E949C030C94A3
S11300A049080C940000ECE7F0E0808180648083D0
S11300B0EAE7F0E080818C6A80830895ECE7F0E061
S11300C09081907F282F2F70922B9083EAE7F0E0A5
S11300D090819068908380934801808180648083BC
S11300E008950F931F9380E090E000E010E09801E2
S11300F0FC01EE0FFF1FEB54FE4F4081518160E085
S113010070E0041715072607370748F4FC01EE0FC3
S1130110FF1FEB54FE4F0081118120E030E0019677
S11301208233910529F7A8E8B3E1A90198010E9457
S11301305405DC01CB01072E7AE0B695A795979577
S113014087957A95D1F7702D9C01AD0124533840E1
S113015041095109A4E0B6E00E94540524E630E0C8
S113016040E050E00E94F504C9011F910F910895E9
S11301708F929F92AF92BF92CF92DF92EF92FF92B3
S1130180CF93DF930E9471009C01DC010E943E0525
S11301904B015C0124E4821A2CEA920AA108B108FA
S11301A0880C991CAA1CBB1C75016401F694E79485
S11301B0D794C794C4E1D0E0C501B401A701960166
S11301C00E94F504C20ED31EE41EF51EF694E794B5
S11301D0D794C794219781F7C701B6012AE030E08C
S11301E040E050E00E94F504C901DF91CF91FF90F7
S11301F0EF90DF90CF90BF90AF909F908F90089535
S11302009C01A8E8B3E10E943E05462F572F682FB2
S1130210792FDB01CA01072E7AE0B595A79597954A
S113022087957A95D1F7702D9C01AD012453384000
S113023041095109A4E0B6E00E94540524E630E0E7
S113024040E050E00E941705C90108950F931F93E1
S113025080E090E000E010E09801FC01EE0FFF1F49
S1130260E05BFE4F4081518160E070E004171507A8
S11302702607370748F4FC01EE0FFF1FE05BFE4F33
S11302800081118120E030E001968233910529F745
S1130290A8E8B3E1A90198010E945405DC01CB014F
S11302A0072E7AE0B695A795979587957A95D1F715
S11302B0702D9C01AD012453384041095109A3E537
S11302C0B2E00E94540524E630E040E050E00E9491
S11302D0F504C9011F910F9108959C01A8E8B3E1A9
S11302E00E943E05462F572F682F792FDB01CA0144
S11302F0072E7AE0B595A795979587957A95D1F7C6
S1130300702D9C01AD012453384041095109A3E5E6
S1130310B2E00E94540524E630E040E050E00E9440
S11303201705C90108954F925F926F927F92AF9221
S1130330BF92CF92DF92EF92FF920F931F93CF93CE
S1130340DF93C0E0D0E0412C512C32018E01000F2C
S1130350111FF801EB54FE4F808191810E9400012E
S11303607C01F801E05BFE4F808191810E946D0168
S11303709701DC010E9436056B017C0121968E01F8
S1130380000F111FF801EB54FE4F808191810E94F0
S113039000015C01F801E05BFE4F808191810E94C5
S11303A06D019501DC010E943605C60ED71EE81EBC
S11303B0F91EF594E794D794C7944C0C5D1C6E1CFD
S11303C07F1CC133D10511F6C301B20128E03DEB16
S11303D043E050E00E94170555234CF020934A0156
S11303E030934B0140934C0150934D010FC088272B
S11303F09927DC01821B930BA40BB50B80934A0154
S113040090934B01A0934C01B0934D0180914A010C
S113041090914B01DF91CF911F910F91FF90EF903D
S1130420DF90CF90BF90AF907F906F905F904F9090
S11304300895AC019C01ADECBCEC0E943E05969580
S1130440879596958795969587959C01220F331FDE
S1130450880F991F880F991F880F991F820F931F68
S11304609A01281B390BC901253030F0465F5F4FD4
S11304709A01281B310903C09A01281B3109ADECEC
S1130480BCEC0E943E059695879596958795969522
S11304908795089587B1886387B98AB1806F8AB9CF
S11304A008950F931F93CF93DF93EC01562F9C0174
S11304B03695279536952795ABE7B4E10E943E051E
S11304C0FC01F695E7959F01ADECBCEC0E943E055E
S11304D09695879596958795969587959C01220F75
S11304E0331F880F991F880F991F880F991F820F38
S11304F0931FE81BF90BED5FFE4F808103E411E0CD
S1130500D8018C939E01ADECBCEC0E943E05FC012D
S1130510F695E795F695E795F695E7959F010E9480
S11305203E059695879596958795969587959C0112
S1130530220F331F880F991F880F991F880F991F47
S1130540820F931FDF01A81BB90BAD5FBE4F8C91C7
S1130550D80111968C931197CF01880F991FEE0F34
S1130560FF1FEE0FFF1FEE0FFF1FE80FF91FCE1B3B
S1130570DF0BCD5FDE4F888112968C931297E52FA7
S1130580F0E0EF5BFE4F808180688083E42FF0E031
S1130590E050FF4F808113968C93DF91CF911F9190
S11305A00F910895E0914201F0E0ED5BFE4F8081F0
S11305B08093200288B1877D88B927E030E080915C
S11305C0200290E0022E02C0959587950A94E2F7E6
S11305D080FF02C0449A01C04498439A4398215032
S11305E0310968F78BB1806F8BB9459A88B18072F5
S11305F088B980914201813041F028F0823039F08D
S1130600833039F007C05C9805C05D9803C05E98DC
S113061001C05F9880914201853018F01092420128
S11306200895809142018F5F8093420108951F9243
S11306300F920FB60F921124109247010F900FBE24
S11306400F901F9018951F920F920FB60F921124BE
S11306502F933F934F935F936F937F938F939F93C6
S1130660AF93BF93EF93FF930E94D202FF91EF9158
S1130670BF91AF919F918F917F916F915F914F91B6
S11306803F912F910F900FBE0F901F9018951F92BE
S11306900F920FB60F9211248F9381E0809349013A
S11306A08F910F900FBE0F901F9018951F920F926D
S11306B00FB60F9211248F939F93EF93FF93809122
S11306C04801882371F0E091B401F0E08091780052
S11306D090917900EE0FFF1FE05BFE4F91838083C2
S11306E00DC0E091B401F0E0809178009091790020
S11306F0EE0FFF1FEB54FE4F918380838091B40172
S11307008F5F8093B4018091B401823328F0EAE7CB
S1130710F0E080818F778083FF91EF919F918F919B
S11307200F900FBE0F901F901895E9E6F0E08081BE
S113073083608083E89A08950E942C040E94230415
S11307400E9453008CE090E00E943D040E949503B7
S11307500E944A02789410921B02CAE7D0E00EE687
S113076010E010924901809149018823E1F310922D
S1130770B40180E00E945E0088818823ECF310922B
S11307804901809149018823E1F31092B40181E089
S11307900E945E0088818823ECF30E94B8000E94C6
S11307A0190290934F0180934E010E9426010E94EA
S11307B0190290931D0280931C020E9493010E94CF
S11307C019029C0190931A028093190290911B02C2
S11307D0913091F018F09230E9F023C040E063E0EA
S11307E080914E0190914F010E94510280911B0211
S11307F08F5F80931B0215C041E060E080911C0272
S113080090911D020E94510280911B028F5F809380
S11308101B0207C042E062E0C9010E94510210922B
S11308201B020E94AF04F80180818260808381E012
S113083080934701809147018111FCCFF8018081A9
S11308408D7F80838ECF84B5826084BD85B58460BE
S113085085BD8EE487BD0895E1E8F0E080818B607A
S1130860808381E19AE79093890080938800EFE682
S1130870F0E080818260808308959C01E1ECF0E0E7
S11308809081986090833093C5002093C4000895AC
S1130890E0ECF0E0908195FFFDCF8093C6000895D1
S11308A0EF92FF920F931F93CF93DF93162F9F9393
S11308B08F938DE091E09F938F9383E292E09F93D7
S11308C08F930E945F050F900F900F900F900F90E1
S11308D00F901123F9F0812F90E001971816190653
S11308E09CF4C3E2D2E0812F90E08C010150110905
S11308F0C8018D5D9D4F7C0189910E944804CE15ED
S1130900DF05D1F7E80102C0C0E0D0E08EE20E942A
S1130910480402C0C0E0D0E0FE01ED5DFD4F8081DF
S1130920882339F0CC5DDD4F0E9448048991811100
S1130930FBCFDF91CF911F910F91FF90EF9008951E
S1130940CF93DF93EC018881882331F021960E94B4
S1130950480489918111FBCFDF91CF91089580E103
S113096091E00E94A00463E080914E0190914F01B8
S11309700E9450048FE191E00E94A0048AE00E944A
S113098048048DE00E94480481E291E00E94A004A2
S113099060E080911C0290911D020E9450048FE23D
S11309A091E00E94A0048AE00E9448048DE00E9425
S11309B0480482E391E00E94A00462E0809119025D
S11309C090911A020E9450048FE391E00E94A004C7
S11309D08AE00E9448048DE00E9448048AE00E9454
S11309E048048DE00E9448040895A1E21A2EAA1B2F
S11309F0BB1BFD010DC0AA1FBB1FEE1FFF1FA217CB
S1130A00B307E407F50720F0A21BB30BE40BF50BC7
S1130A10661F771F881F991F1A9469F76095709550
S1130A20809590959B01AC01BD01CF010895052EE1
S1130A3097FB1EF400940E942E0557FD07D00E94D8
S1130A40F50407FC03D04EF40C942E055095409504
S1130A50309521953F4F4F4F5F4F08959095809566
S1130A60709561957F4F8F4F9F4F08950E943E056B
S1130A70332312F48A1B9B0B0C944F05A29FB001E5
S1130A80B39FC001A39F700D811D1124911DB29FBE
S1130A90700D811D1124911D08950E943E05B7FF1C
S1130AA00895821B930B08950E943E05A59F900D07
S1130AB0B49F900DA49F800D911D11240895AEE064
S1130AC0B0E0E5E6F5E00C9420080D891E8986E087
S1130AD08C831A8309838FEF9FE79E838D83AE01F6
S1130AE0475E5F4F6F89788DCE0101960E94810524
S1130AF0EF81F885E00FF11F10822E96E4E00C944C
S1130B003C08ABE0B0E0E7E8F5E00C9412086C01B7
S1130B107B018A01FC0117821682838181FFCCC18B
S1130B20CE0101963C01F6019381F70193FD859175
S1130B3093FF81917F01882309F4BAC1853239F486
S1130B4093FD859193FF81917F01853229F4B6014C
S1130B5090E00E947807E7CF912C212C312CFFE103
S1130B60F315D8F08B3279F038F4803279F083328F
S1130B70A1F4232D20611DC08D3261F0803369F40E
S1130B80232D216016C0832D8260382EE32DE4606E
S1130B903E2E2AC0F32DF8601DC037FC2DC020ED79
S1130BA0280F2A3040F08E32B9F436FC81C1232D4F
S1130BB02064322E19C036FE06C08AE0989E200DAD
S1130BC01124922E11C0EAE02E9E200D1124222E13
S1130BD0F32DF0623F2E08C08C3621F4832D8068FB
S1130BE0382E02C0883641F4F70193FD859193FFB6
S1130BF081917F018111B3CF982F9F7D95549330BC
S1130C0028F40C5F1F4F9FE399830DC0833631F0A6
S1130C10833771F0833509F059C021C0F801808110
S1130C2089830E5F1F4F88248394912C530113C032
S1130C302801F2E04F0E511CF801A080B18036FE6D
S1130C4003C0692D70E002C06FEF7FEFC5010E9401
S1130C506D074C018201F32DFF773F2E16C028014A
S1130C6022E0420E511CF801A080B18036FE03C080
S1130C70692D70E002C06FEF7FEFC5010E9462072B
S1130C804C01F32DF0683F2E820133FC1BC0822DF2
S1130C9090E088169906B0F4B60180E290E00E94D4
S1130CA078072A94F4CFF50137FC859137FE8191BA
S1130CB05F01B60190E00E94780721102A9421E098
S1130CC0821A91088114910471F7E8C0843611F0F6
S1130CD0893641F5F80137FE07C060817181828150
S1130CE093810C5F1F4F08C060817181072E000C37
S1130CF0880B990B0E5F1F4FF32DFF763F2E97FF46
S1130D0009C090958095709561957F4F8F4F9F4F47
S1130D10F0683F2E2AE030E0A3010E94B407882E39
S1130D20861845C0853731F4232D2F7EB22E2AE054
S1130D3030E025C0932D997FB92E8F36C1F018F479
S1130D40883579F0B5C0803719F0883721F0B0C004
S1130D50E92FE061BE2EB4FE0DC0FB2DF460BF2E62
S1130D6009C034FE0AC0292F2660B22E06C028E02E
S1130D7030E005C020E130E002C020E132E0F801BB
S1130D80B7FE07C060817181828193810C5F1F4F20
S1130D9006C06081718180E090E00E5F1F4FA30167
S1130DA00E94B407882E8618FB2DFF773F2E36FE4F
S1130DB00DC0232D2E7FA22E891458F434FE0BC0AF
S1130DC032FC09C0832D8E7EA82E05C0B82CA32C1E
S1130DD003C0B82C01C0B92CA4FE0FC0FE01E80D5D
S1130DE0F11D8081803321F49A2D997EA92E09C0AA
S1130DF0A2FE06C0B394B39404C08A2D867809F089
S1130E00B394A3FC11C0A0FE06C0B21488F4280C4D
S1130E10922C9B180EC0B21460F4B60180E290E0EC
S1130E200E947807B394F7CFB21418F42B1802C0B9
S1130E30982C212CA4FE10C0B60180E390E00E94FF
S1130E407807A2FE17C0A1FC03C088E790E002C0A7
S1130E5088E590E0B6010CC08A2D867859F0A1FE91
S1130E6002C08BE201C080E2A7FC8DE2B60190E0F3
S1130E700E947807891438F4B60180E390E00E9458
S1130E8078079A94F7CF8A94F301E80DF11D8081D5
S1130E90B60190E00E9478078110F5CF222009F472
S1130EA042CEB60180E290E00E9478072A94F6CF01
S1130EB0F6018681978102C08FEF9FEF2B96E2E1C6
S1130EC00C942E08FC010590615070400110D8F775
S1130ED0809590958E0F9F1F0895FC01615070407E
S1130EE001900110D8F7809590958E0F9F1F08955B
S1130EF00F931F93CF93DF93FB01238121FD03C045
S1130F008FEF9FEF2CC022FF16C0468157812481AA
S1130F1035814217530744F4A081B1819D012F5FAD
S1130F203F4F318320838C93268137812F5F3F4F3E
S1130F303783268314C08B01EC01FB010084F18507
S1130F40E02D0995892BE1F6D80116968D919C9197
S1130F501797019617969C938E931697CE01DF915F
S1130F60CF911F910F910895FA01AA27283051F1CA
S1130F70203181F1E8946F936E7F6E5F7F4F8F4FC6
S1130F809F4FAF4FB1E03ED0B4E03CD0670F781F25
S1130F90891F9A1FA11D680F791F8A1F911DA11D0A
S1130FA06A0F711D811D911DA11D20D009F4689443
S1130FB03F912AE0269F11243019305D3193DEF6EB
S1130FC0CF010895462F4770405D4193B3E00FD0A1
S1130FD0C9F7F6CF462F4F70405D4A3318F0495D8C
S1130FE031FD4052419302D0A9F7EACFB4E0A6956F
S1130FF09795879577956795BA95C9F70097610591
S1131000710508959B01AC010A2E069457954795E6
S113101037952795BA95C9F7620F731F841F951FDB
S1131020A01D08952F923F924F925F926F927F92EC
S11310308F929F92AF92BF92CF92DF92EF92FF92E4
S11310400F931F93CF93DF93CDB7DEB7CA1BDB0B90
S11310500FB6F894DEBF0FBECDBF09942A88398835
S113106048885F846E847D848C849B84AA84B9843C
S1131070C884DF80EE80FD800C811B81AA81B98148
S1131080CE0FD11D0FB6F894DEBF0FBECDBFED015C
S10910900895F894FFCF5F
S11310963E39733F065B4F666D7D077F6725750096
S11310A65065616B20766F6C746167653A200056F3
S11310B600524D532063757272656E743A20006D4A
S11310C641005265616C20706F7765723A20005753
S10510D6000014
S9030000FC
