:100000000C9434000C9449000C9449000C94490061
:100010000C9449000C9449000C9449000C9449003C
:100020000C9449000C9449000C9449000C9449002C
:100030000C9449000C9449000C9449000C9449001C
:100040000C9449000C9449000C9449000C9449000C
:100050000C9449000C9449000C9449000C944900FC
:100060000C9449000C94490011241FBECFEFD8E036
:10007000DEBFCDBF11E0A0E0B1E0EAE7F2E002C0F0
:1000800005900D92AC32B107D9F70E9483000C9411
:100090003B010C9400009C01E1ECF0E0908198643D
:1000A00090833093C5002093C4000895E0ECF0E005
:1000B000908195FFFDCF8093C6000895FB0199E2E2
:1000C000899F912D112492959F7090839DEC899F1B
:1000D000212D1124269526952695299F912D1124B1
:1000E000969596959695990F392F330F330F930F59
:1000F000322F391B3183220F922F990F990F290F1D
:10010000821B82830895CF93DF93CDB7DEB7E49748
:100110000FB6F894DEBF0FBECDBF8CE090E00E941A
:100120004B0081E1E0E0F1E0DE01119601900D92DB
:100130008A95E1F780E1E1E1F1E0DE01529601907C
:100140000D928A95E1F78AE0E1E2F1E0DE01929614
:1001500001900D928A95E1F7BE01645D7F4F81E9C0
:100160000E945E00BE01615D7F4F8DE70E945E00D0
:10017000BE016E5C7F4F80EA0E945E007E0122E13C
:10018000E20EF11C6E0182E2C80ED11C4E0192E318
:10019000890E911C5E01ECE2AE0EB11C8E010F5F68
:1001A0001F4FF80181918F010E945600E016F10661
:1001B000C1F78CA5805D0E9456008DA5805D0E94D0
:1001C00056008EE20E9456008EA5805D0E94560069
:1001D0008AE00E9456008DE00E9456008E010E5E5D
:1001E0001F4FF80181918F010E945600C016D10661
:1001F000C1F78E01015D1F4FF80181918F01805D74
:100200000E94560080169106B9F78AE00E945600B7
:100210008DE00E9456008E010E5D1F4FF801819106
:100220008F010E945600A016B106C1F78AA9805D11
:100230000E9456008EE20E9456008BA9805D0E94AB
:1002400056008CA9805D0E9456008AE00E945600EC
:100250008DE00E9456008AE00E9456008DE00E94C8
:100260005600FFE72AE186E0F15020408040E1F7A8
:0A02700000C0000093CFF894FFCF08
:10027A005065616B20566F6C746167652069733ACB
:10028A0020524D532043757272656E742069733A19
:0C029A0020506F7765722069733A2000D5
:00000001FF
